:10000000021B4F7D037F08121D402202270C122B7A
:100010007212282C12207B1221702202274753B122
:10002000BF53B2BF53B17F53B27F22022692BB01AE
:100030000689828A83E0225002E722BBFE02E32285
:1000400089828A83E49322BB010CE58229F582E54B
:10005000833AF583E0225006E92582F8E622BBFECA
:1000600006E92582F8E222E58229F582E5833AF560
:1000700083E49322BB010689828A83F0225002F72F
:1000800022BBFE01F322F8BB010DE58229F582E5D2
:10009000833AF583E8F0225006E92582C8F622BBB0
:1000A000FE05E92582C8F222EF8DF0A4A8F0CF8CDE
:1000B000F0A428CE8DF0A42EFE22BC000BBE002999
:1000C000EF8DF084FFADF022E4CCF875F008EF2F4F
:1000D000FFEE33FEEC33FCEE9DEC984005FCEE9D0C
:1000E000FE0FD5F0E9E4CEFD22EDF8F5F0EE842028
:1000F000D21CFEADF075F008EF2FFFED33FD400789
:10010000985006D5F0F222C398FD0FD5F0EA22C52B
:10011000F0F8A3E028F0C5F0F8E58215827002152A
:1001200083E038F022A3F8E0C5F025F0F0E5821571
:100130008270021583E0C838F0E822BB010A898288
:100140008A83F0E5F0A3F0225006F709A7F0192200
:10015000BBFE06F3E5F009F31922EF2BFFEE3AFEA2
:10016000ED39FDEC38FC22C3EF9BFFEE9AFEED99D2
:10017000FDEC98FC22E88FF0A4CC8BF0A42CFCE9D9
:100180008EF0A42CFC8AF0EDA42CFCEA8EF0A4CD19
:10019000A8F08BF0A42DCC3825F0FDE98FF0A42C2D
:1001A000CD35F0FCEB8EF0A4FEA9F0EB8FF0A4CFE0
:1001B000C5F02ECD39FEE43CFCEAA42DCE35F0FD91
:1001C000E43CFC2275F008758200EF2FFFEE33FE51
:1001D000CD33CDCC33CCC58233C5829BED9AEC991F
:1001E000E58298400CF582EE9BFEED9AFDEC99FCC1
:1001F0000FD5F0D6E4CEFBE4CDFAE4CCF9A8822208
:10020000B800C1B90059BA002DEC8BF084CFCECD27
:10021000FCE5F0CBF97818EF2FFFEE33FEED33FD60
:10022000EC33FCEB33FB10D703994004EB99FB0F45
:10023000D8E5E4F9FA227818EF2FFFEE33FEED331C
:10024000FDEC33FCC933C910D7059BE99A4007EC94
:100250009BFCE99AF90FD8E0E4C9FAE4CCFB2275DB
:10026000F010EF2FFFEE33FEED33FDCC33CCC8336F
:10027000C810D7079BEC9AE899400AED9BFDEC9AD1
:10028000FCE899F80FD5F0DAE4CDFBE4CCFAE4C849
:10029000F922C3E49FFFE49EFEE49DFDE49CFC2262
:1002A000EB9FF5F0EA9E42F0E99D42F0EC6480C8D5
:1002B00064809845F022EB9FF5F0EA9E42F0E99DBC
:1002C00042F0E89C45F022E8600FECC313FCED130C
:1002D000FDEE13FEEF13FFD8F122E8600FEFC333FA
:1002E000FFEE33FEED33FDEC33FCD8F122BB01070A
:1002F00089828A8302031F5005E9F8020492BBFE3B
:1003000005E9F802049E22E0FCA3E0FDA3E0FEA3C1
:10031000E0FF22E0F8A3E0F9A3E0FAA3E0FB22EC7F
:10032000F0A3EDF0A3EEF0A3EFF022A8828583F016
:10033000D083D082120342120342120342120342BC
:10034000E473E493A3C583C5F0C583C8C582C8F030
:10035000A3C583C5F0C583C8C582C822A42582F57C
:1003600082E5F03583F58322E0FBA3E0FAA3E0F910
:1003700022F8E0FBA3A3E0F925F0F0E582158270F6
:10038000021583E0FA38F022EBF0A3EAF0A3E9F0DB
:1003900022E493FB740193FA740293F922BB0107E0
:1003A00089828A830203685005E9F80204AABBFE29
:1003B00005E9F80204BC89828A83020391BB011A11
:1003C00089828A83D0F0D0E0F8D0E0F9D0E0FAD08A
:1003D000E0FBE8C0E0C0F00203885016E9F8D083E3
:1003E000D082D0E0F9D0E0FAD0E0FBC082C0830236
:1003F00004B3BBFE16E9F8D083D082D0E0F9D0E098
:10040000FAD0E0FBC082C0830204C522D083D08230
:10041000F8E4937012740193700DA3A393F8740120
:1004200093F5828883E4737402936860EFA3A3A3B7
:1004300080DFD083D082F8E4937012740193700D42
:10044000A3A393F8740193F5828883E473740293F1
:10045000B5F0067403936860E9A3A3A3A380D88AC8
:10046000838982E473EC8EF0A4CCC5F0CCCDF8EF98
:10047000A4CEC5F02DFDE43CFCE8A42EC8C5F03D9B
:10048000FDE43CFCEFA4FFE5F028FEE43DFDE43C88
:10049000FC22ECF608EDF608EEF608EFF622ECF298
:1004A00008EDF208EEF208EFF222E6FB08E6FA08A1
:1004B000E6F922EBF608EAF608E9F622E2FB08E2A2
:1004C000FA08E2F922EBF208EAF208E9F2229001D6
:1004D000A3EFF0900205E0FF9001A3E0FEEE6FFFB6
:1004E0009001A4EFF09001A4E0FFEF700302077801
:1004F0009001A5E4F09001A5E0FFEFC39402400352
:100500000207789001A5E0FF74017E00A80708802B
:1005100005C333CE33CED8F9FF9001A4E0FD7C00B3
:10052000EE5CFEEF5DFFEF4E700302076F9001A5DA
:10053000E0FF74017E00A807088005C333CE33CEE8
:10054000D8F9FF9001A3E0FD7C00EE5CFEEF5DFFBB
:10055000EF4E70030206C79001A5E0FF74017E0014
:10056000A807088005C333CE33CED8F9FF9001A386
:10057000E0FD7C00EF6D7002EE6C703F9001A5E035
:10058000FFEF902BDD93FDC00590015112032B006E
:100590000007D0D0057F041217B99001A5E0FFEF46
:1005A000902BDF93FDC00590015112032B00000F2B
:1005B000A0D0057F041217B90206BA9001A7E4F093
:1005C0009001A7E0FFEFC39402504F9001A7E0FF16
:1005D00074017E00A807088005C333CE33CED8F956
:1005E000FF900205E0FD7C00EE5CFEEF5DFFEF4E4C
:1005F00060209001A7E0FFEF902BDD93FD7F0412B8
:1006000020F99001A7E0FFEF902BDF93FD7F04120C
:1006100020F99001A7E004F080A69001A7E4F090F3
:1006200001A7E0FFEFC3940150289001A7E0FFEF7E
:10063000902BE293FD7F041220F99001A7E0FFEFD9
:10064000902BE393FD7F041220F99001A7E004F0C2
:1006500080CD9001A7E4F09001A7E0FFEFC39401E3
:1006600050589001A7E0FFEF902BE193FF9001A37A
:10067000E0FEEE6F703C9001A7E0FFEF902BE2935D
:10068000FDC00590015112032B000007D0D0057F5B
:10069000041217B99001A7E0FFEF902BE393FDC080
:1006A0000590015112032B00000FA0D0057F04120A
:1006B00017B99001A7E004F0809D9001A3E0FF7DB1
:1006C00001122A7F0207699001A5E0FFEF902BDD60
:1006D00093FD7F041222587B007A0079007800C3D2
:1006E0001202B660089001A67401F080059001A680
:1006F000E4F09001A5E0FFEF902BDD93FD7F041265
:1007000020F99001A5E0FFEF902BDF93FD7F04120D
:1007100020F99001A7E4F09001A7E0FFEFC3940156
:1007200050289001A7E0FFEF902BE293FD7F041289
:1007300020F99001A7E0FFEF902BE393FD7F0412D7
:1007400020F99001A7E004F080CD9001A6E0FFEF32
:10075000B4010C9001A4E0FF7D02122A7F800A9070
:1007600001A4E0FF7D00122A7F9001A5E004F09033
:1007700001A5E004F00204F59001A3E0FF9002055A
:10078000EFF022122987900135E0FFEF12040C07E9
:100790009F0007C401099F0208BD030000090690DD
:1007A00000F4E4F09000F5E4F09000F6E4F07D0051
:1007B0007F00121FFB7D007F01121FFB7D007F0267
:1007C000121FFB229000FDE4F09000F3E4F0900093
:1007D000FDE0FFEF3395E0FE902B9F75F003EF12E5
:1007E000035CEE75F003A42583F583E493FF90008A
:1007F000F4EFF09000FDE0FFEF3395E0FE902BA0CA
:1008000075F003EF12035CEE75F003A42583F58306
:10081000E493FF9000F5EFF09000FDE0FFEF3395DB
:10082000E0FE902BA175F003EF12035CEE75F00370
:10083000A42583F583E493FF9000F6EFF09000F495
:10084000E0FD7F00121FFB9000F5E0FD7F01121F0D
:10085000FB9000F6E0FD7F02121FFB9000FDE0FF21
:10086000EF3395E0FEEF25E0FFEE33FE74B42FF595
:1008700082742B3EF583E493FE740193FFEF4E6088
:10088000339000FDE0FFEF3395E0FEEF25E0FFEE53
:1008900033FE74B42FF582742B3EF583E493FE741B
:1008A0000193FFE4FCFD90015112031F7D017F06BF
:1008B0001217B9227D017F06121D4022229000F4FA
:1008C000E0FFEFC313FF9000F4EFF09000F5E0FFBE
:1008D000EFC313FF9000F5EFF09000F6E0FFEFC3D9
:1008E00013FF9000F6EFF09000F4E0FD7F00121F80
:1008F000FB9000F5E0FD7F01121FFB9000F6E0FD8C
:100900007F02121FFB22900135E0FFEF24FCFF90D5
:100910000207EFF0900207E0FFEFC3940C505390F2
:100920000207E0FFEF75F003A4247BF582E4342B8B
:10093000F583E493FF9000F4EFF0900207E0FFEFFF
:1009400075F003A4247CF582E4342BF583E493FF53
:100950009000F5EFF0900207E0FFEF75F003A4249C
:100960007DF582E4342BF583E493FF9000F6EFF0FD
:10097000800F9000F4E4F09000F5E4F09000F6E4CD
:10098000F09000F4E0FD7F00121FFB9000F5E0FD09
:100990007F01121FFB9000F6E0FD7F02121FFB2279
:1009A0009001B8E0FEA3E0FF900161EEF0A3EFF04C
:1009B0009001B8E0FEA3E0FFEF4E60349001B8E094
:1009C000FEA3E0FF7C007D1F120465A804A905AA10
:1009D00006AB07900130E0FEA3E0FFE4FCFD12014E
:1009E0005A78051202C79001B8EEF0A3EFF080101C
:1009F000900130E0FEA3E0FF9001B8EEF0A3EFF02D
:100A00009001BBE0FFEFC3944050079001BBE004AE
:100A1000F0229001BBE4F0900161E0FEA3E0FFEF63
:100A20004E7003020AF39001B8E0FEA3E0FFEF4E20
:100A30007003020AF3900161E0FEA3E0FFEF24607F
:100A4000FFEE3473FE90015DEEF0A3EFF09001B87D
:100A5000E0FEA3E0FFEF2460FFEE3473FE90015F41
:100A6000EEF0A3EFF090015DE0FEA3E0FFC3EE64C3
:100A7000809480501390015FE0FEA3E0FFD3EF94D9
:100A800000EE64809480503B90015DE0FEA3E0FFA7
:100A9000D3EF9400EE64809480401090015FE0FEFC
:100AA000A3E0FFC3EE64809480401890015DE0FEF7
:100AB000A3E0FFEF4E600C90015FE0FEA3E0FFEFCC
:100AC0004E70309001BAE004F09001BAE0FFEFC33D
:100AD0009405401F90012FE0FFEF4402FF90012F8B
:100AE000EFF090012FE0FFEF54FBFF90012FEFF0AC
:100AF000122B259001BAE0FFEFC394054003020BCF
:100B00008E122B5D900163EFF09001B8E0FEA3E040
:100B1000FFE4FCFD7BA07A8C79007800C31202A070
:100B20005008900163E004F08006900163E014F047
:100B3000900163E0FF122591900163EFF090016353
:100B4000E0FFEFB4142090012FE0FFEF4402FF908C
:100B5000012FEFF090012FE0FFEF54FBFF90012FEA
:100B6000EFF0122B7822900163E0FFEFB4EC1F90BE
:100B7000012FE0FFEF4402FF90012FEFF090012FD3
:100B8000E0FFEF54FBFF90012FEFF0122B79229042
:100B900001FDEFF09001FEEDF09001FDE0FF90010E
:100BA000FDEFF09001FEE0FFEF12040C0BB9000B1B
:100BB000E2010C7B0200000D47122B367D027F05FF
:100BC0001220F97D017F051220F990020DE4F090CA
:100BD0000134E0FFEF7003020D4A7D017F05121D15
:100BE0004022122B08900134E0FFEFB40113900172
:100BF0005112032B000000647D027F051217B9809B
:100C000073900134E0FFEFB4021390015112032BF3
:100C1000000003E87D027F051217B9805790013468
:100C2000E0FFEFB4031390015112032B00000064A6
:100C30007D027F051217B9803B900134E0FFEFB4CD
:100C4000041390015112032B000000647D027F0504
:100C50001217B9801F900134E0FFEFB40513900123
:100C60005112032B000000647D027F051217B9802A
:100C700003122B3690020DE004F022122B36900165
:100C800034E0FFEF64017003020D40900134E0FF97
:100C9000EF64027003020D40900134E0FFEFB403F3
:100CA0002090020DE0FFEF64016003020D4090010F
:100CB0005112032B000000647D017F051217B980DB
:100CC0007F900134E0FFEF6404704390020DE0FF79
:100CD000EF6401600990020DE0FFEFB4051390018D
:100CE0005112032B000000647D017F051217B980AB
:100CF0004F90020DE0FFEF64037045900151120325
:100D00002B0000012C7D017F051217B98032900164
:100D100034E0FFEFB4052690020DE0FFEF640160C0
:100D20000990020DE0FFEFB4031690015112032B5E
:100D3000000000647D017F051217B98003122B3675
:100D400090020DE004F022122B6F22900209E4F0D1
:100D50007D027F06122258EC4D4E4F600E90020924
:100D6000E0FFEF4401FF900209EFF07D037F0612E0
:100D70002258EC4D4E4F600E900209E0FFEF440206
:100D8000FF900209EFF07D047F06122258EC4D4ED1
:100D90004F600E900209E0FFEF4404FF900209EF5C
:100DA000F0900209E0FFEF6003020EED9000F3E027
:100DB000FF9000FDEFF09000F3E004F09000F3E00E
:100DC000FFC3EF6480948740059000F3E4F0900047
:100DD000F3E0FFEF3395E0FE902B9F75F003EF12E9
:100DE000035CEE75F003A42583F583E493FD900086
:100DF000F4E0FF1227F41229F99000FBEEF0A3EFC4
:100E0000F09000F3E0FFEF3395E0FE902BA075F03B
:100E100003EF12035CEE75F003A42583F583E493DE
:100E2000FD9000F5E0FF1227F41229F99000F9EE89
:100E3000F0A3EFF09000F3E0FFEF3395E0FE902B8E
:100E4000A175F003EF12035CEE75F003A42583F5A2
:100E500083E493FD9000F6E0FF1227F41229F99045
:100E600000F7EEF0A3EFF09000FBE0FEA3E0FFEF51
:100E70004E601A9000FBE0FEA3E0FFE4FCFD900151
:100E80005112031F7D027F061217B980077D027F72
:100E900006121D409000F9E0FEA3E0FFEF4E601A3D
:100EA0009000F9E0FEA3E0FFE4FCFD900151120385
:100EB0001F7D037F061217B980077D037F06121D71
:100EC000409000F7E0FEA3E0FFEF4E60199000F7BE
:100ED000E0FEA3E0FFE4FCFD90015112031F7D043E
:100EE0007F061217B9227D047F06121D4022900151
:100EF000B4EFF09001B5EDF09001B5E0FFEF54FFD5
:100F0000FF7E00EF7F00FE9001B4E0FDED54FFFD99
:100F10007C00EF2DFFEE3CFE9001B6EEF0A3EFF06B
:100F20009001B6E0FEA3E0FFEF8EF01204321088CD
:100F3000000110880002104301010F6201021088B5
:100F400002010F700202106F0301102003021088CB
:100F500003031088040110880402108804030000B1
:100F600010889001347401F07D007F05121D40222D
:100F7000900136E004F0900136E0FFEFD394044096
:100F800005900136E4F0900136E0FFEF70097D0036
:100F90007F0F1222C68062900136E0FFEFB401108D
:100FA0007D007F0F1222C67D017F011222C680497B
:100FB000900136E0FFEFB402107D007F0F1222C6D1
:100FC0007D017F091222C68030900136E0FFEFB428
:100FD00003107D007F0F1222C67D017F051222C6FD
:100FE0008017900136E0FFEFB4040E7D007F0F12F2
:100FF00022C67D017F031222C67D007F07121D409D
:10100000900136E0FFEF6401707E900135E0FFEF64
:101010007076900135E004F07D007F06121D4022BD
:10102000900136E4F07D007F07121D407D007F0FA8
:101030001222C69001347403F07D007F05121D401A
:10104000222222900135E004F0900135E0FFEFC349
:1010500094104005900135E4F07D007F06121D409C
:101060009001347401F07D007F05121D4022229012
:101070000135E4F07D007F06121D409001347401BB
:10108000F07D007F05121D4022C2AF900000E0FFFE
:101090009001D2EFF0D2AF900001E0FF9001D2E0DA
:1010A000FEEE6F7003021220900001E0FF9001D26B
:1010B000E0FEEED39F4010900001E0FF9001D2E0EF
:1010C000FEC3EE9FFF8012900001E0FFC374FF9FFC
:1010D000FF9001D2E0FEEF2EFF9001D3EFF09001E0
:1010E000D2E0FF900001EFF09001D3E0FF7E00908E
:1010F0000066EE8FF012010F900066E0FEA3E0FFA5
:10110000C3EF94E8EE9403402290006674FC75F0FF
:101110001812010F9000021203077B017A00790078
:10112000780012015A90000212031F9001D1E4F0DE
:101130009001D1E0FFEFC394104003021220900110
:10114000D1E0FFEF75F006A42406F582E43400F543
:1011500083120307EC4D4E4F70030212179001D318
:10116000E0FFE4FCFDFE9001D1E0FBEB75F006A48E
:101170002406F582E43400F583120313C31202B689
:1011800040269001D3E0FFAB07E4FAF9F89001D1D3
:10119000E0FFEF75F006A42406F582E43400F58341
:1011A00012030712016780087F007E007D007C002B
:1011B0009001D1E0FBEB75F006A42406F582E4343F
:1011C00000F58312031F9001D1E0FFEF75F006A434
:1011D0002406F582E43400F5831203077B007A00CD
:1011E00079007800C31202B6702D9001D1E0FFEFB4
:1011F00075F006A4240AF582E43400F583E0FF903C
:1012000001D1E0FEEE75F006A4240BF582E4340073
:10121000F583E0FD121D409001D1E004F002113091
:101220002290020AE4F09000F3E0FFEF3395E0FE35
:10123000902B9F75F003EF12035CEE75F003A4256D
:1012400083F583E493FF9000F4E0FEEE6F60030209
:10125000130F7D027F06122258EC4D4E4F600E9008
:10126000020AE0FFEF4401FF90020AEFF07D037FE6
:1012700006122258EC4D4E4F600E90020AE0FFEF2E
:101280004402FF90020AEFF07D047F06122258EC20
:101290004D4E4F600E90020AE0FFEF4404FF9002B3
:1012A0000AEFF090020AE0FFEF6003021391900052
:1012B000F3E0FFEF3395E0FEEF25E0FFEE33FE7441
:1012C000B42FF582742B3EF583E493FE740193FFF3
:1012D000EF4E60339000F3E0FFEF3395E0FEEF2533
:1012E000E0FFEE33FE74B42FF582742B3EF583E4F9
:1012F00093FE740193FFE4FCFD90015112031F7DE6
:10130000017F061217B9227D017F06121D4022902F
:1013100000F3E0FFEF3395E0FE902B9F75F003EFB5
:1013200012035CEE75F003A42583F583E493FF902C
:1013300000F4E0FEEED39F40089000F4E014F0804B
:10134000069000F4E004F09000F4E0FD7F00121F2E
:10135000FB9000F5E0FD7F01121FFB9000F6E0FD21
:101360007F02121FFB9000FBE0FEA3E0FFEF4E6048
:10137000199000FBE0FEA3E0FFE4FCFD9001511298
:10138000031F7D027F061217B9227D027F06121D00
:10139000402290020BE4F09000F3E0FFEF3395E081
:1013A000FE902BA075F003EF12035CEE75F003A422
:1013B0002583F583E493FF9000F5E0FEEE6F600374
:1013C0000214807D027F06122258EC4D4E4F600EB3
:1013D00090020BE0FFEF4401FF90020BEFF07D0362
:1013E0007F06122258EC4D4E4F600E90020BE0FF2C
:1013F000EF4402FF90020BEFF07D047F06122258AB
:10140000EC4D4E4F600E90020BE0FFEF4404FF9056
:10141000020BEFF090020BE0FFEF60030215029069
:1014200000F3E0FFEF3395E0FEEF25E0FFEE33FE43
:1014300074B42FF582742B3EF583E493FE7401930C
:10144000FFEF4E60339000F3E0FFEF3395E0FEEFE7
:1014500025E0FFEE33FE74B42FF582742B3EF58346
:10146000E493FE740193FFE4FCFD90015112031F0D
:101470007D017F061217B9227D017F06121D4022D1
:101480009000F3E0FFEF3395E0FE902BA075F003A2
:10149000EF12035CEE75F003A42583F583E493FF5C
:1014A0009000F5E0FEEED39F40089000F5E014F0C8
:1014B00080069000F5E004F09000F4E0FD7F00125B
:1014C0001FFB9000F5E0FD7F01121FFB9000F6E08E
:1014D000FD7F02121FFB9000F9E0FEA3E0FFEF4E3C
:1014E00060199000F9E0FEA3E0FFE4FCFD900151DB
:1014F00012031F7D037F061217B9227D037F061298
:101500001D402290020CE4F09000F3E0FFEF3395D1
:10151000E0FE902BA175F003EF12035CEE75F00373
:10152000A42583F583E493FF9000F6E0FEEE6F6060
:10153000030215F17D027F06122258EC4D4E4F60DA
:101540000E90020CE0FFEF4401FF90020CEFF07DE3
:10155000037F06122258EC4D4E4F600E90020CE0B5
:10156000FFEF4402FF90020CEFF07D047F06122291
:1015700058EC4D4E4F600E90020CE0FFEF4404FF1C
:1015800090020CEFF090020CE0FFEF600302167384
:101590009000F3E0FFEF3395E0FEEF25E0FFEE3340
:1015A000FE74B42FF582742B3EF583E493FE740130
:1015B00093FFEF4E60339000F3E0FFEF3395E0FED2
:1015C000EF25E0FFEE33FE74B42FF582742B3EF569
:1015D00083E493FE740193FFE4FCFD900151120338
:1015E0001F7D017F061217B9227D017F06121D4063
:1015F000229000F3E0FFEF3395E0FE902BA175F011
:1016000003EF12035CEE75F003A42583F583E493E6
:10161000FF9000F6E0FEEED39F40089000F6E01445
:10162000F080069000F6E004F09000F4E0FD7F000A
:10163000121FFB9000F5E0FD7F01121FFB9000F6EA
:10164000E0FD7F02121FFB9000F7E0FEA3E0FFEF3A
:101650004E60199000F7E0FEA3E0FFE4FCFD90016E
:101660005112031F7D047F061217B9227D047F06E5
:10167000121D4022122B65122B6C90012FE0FFEF00
:1016800054FEFF90012FEFF090012FE0FFEF54F791
:10169000FF90012FEFF090012FE0FFEF54FBFF9040
:1016A000012FEFF07D017F071220F97D027F0712E5
:1016B00020F97D037F071220F97D017F031220F9B5
:1016C0007D027F021220F97D007F02121D409001F1
:1016D00036E0FFEFC3940540030217B8900136E0EF
:1016E000FFEF75F00CA42468F582E43400F5831252
:1016F0000307EC4D4E4F70030217B8122B61900197
:101700002FE0FFEF4401FF90012FEFF0122B6990C3
:10171000015112032B000000647D017F031217B9F1
:1017200090012FE0FFEF20E11190015112032B00F7
:101730000003E87D027F021217B9900136E0FFEF47
:1017400075F00CA42470F582E43400F583120307CD
:10175000EC4D4E4F6023900136E0FFEF75F00CA486
:101760002470F582E43400F58312030790015112CE
:10177000031F7D017F071217B9900136E0FFEF7557
:10178000F00CA4246CF582E43400F583120307EC1A
:101790004D4E4F6023900136E0FFEF75F00CA4240E
:1017A00068F582E43400F5831203079001511203B7
:1017B0001F7D037F071217B92290014FEFF09001B0
:1017C00050EDF090014FE0FFEFC394095003D38038
:1017D00001C340031229D5900150E0FFEFC39408E4
:1017E0005003D38001C340031229D57F007E007DC2
:1017F000007C00900151120313C31202B66003D3A0
:101800008001C340031229D590014FE0FF900150A1
:10181000E0FD121EF2900155EFF0900155E0FFEF50
:101820006410601D900151120307900155E0FBEB1D
:1018300075F006A42406F582E43400F58312031F34
:1018400022900155E4F0900155E0FFEFC394104061
:10185000030218D3900155E0FFEF75F006A42406AB
:10186000F582E43400F5831203077B007A007900E7
:101870007800C31202B67052900151120307900112
:1018800055E0FBEB75F006A42406F582E43400F580
:101890008312031F90014FE0FF900155E0FEEE75AB
:1018A000F006A4240AF582E43400F583EFF09001F9
:1018B00050E0FF900155E0FEEE75F006A4240BF514
:1018C00082E43400F583EFF08009900155E004F0E4
:1018D000021846900155E0FFEF64106003D38001C9
:1018E000C340031229D5221210899001C7E4F09059
:1018F00001C7E0FFEFC3940950EDC2AF9001C7E00C
:10190000FF74252FF582E43401F583E0FF9001C5D3
:10191000EFF0D2AF9001C5E0FFEF70030219CE9057
:1019200001C6E4F09001C6E0FFEFC39408502F9089
:1019300001C6E0FF74017E00A807088005C333CE0E
:1019400033CED8F9FF9001C5E0FD7C00EE5CFEEFE0
:101950005DFFEF4E70089001C6E004F080C6900174
:10196000C6E0FF7401A807088002C333D8FCFF90CB
:1019700001C5EFF09001C5E0FFEFF4FF9001C5EF66
:10198000F0C2AF9001C7E0FF74252FF582E4340167
:10199000F583C083C082E0FF9001C5E0FEEF5EFFEB
:1019A000D082D083EFF0D2AF9001C7E0FF9001C6A4
:1019B000E0FD9001C7E0FE75F003EE902BC212032C
:1019C0005C12039189828A831204630218E79001F2
:1019D000C7E004F00218EF0218E7229001F5EFF0DB
:1019E0009001F6EDF09001F5E0FF9001F5EFF09039
:1019F00001F6E0FFEF12040C1A02001A7901000050
:101A00001A959001DAE0FEA3E0FFEF4E60349001FA
:101A1000DAE0FEA3E0FF7C007D03120465A804A9C0
:101A200005AA06AB07900132E0FEA3E0FFE4FCFD4F
:101A300012015A78021202C79001DAEEF0A3EFF019
:101A40008010900132E0FEA3E0FF9001DAEEF0A3F7
:101A5000EFF09001DCE0FFEFC3940550079001DC4C
:101A6000E004F0229001DAE0FEA3E0FFC3EF945E11
:101A7000EE94015023122894229001DAE4F0A3E4BA
:101A8000F09001DCE4F090012FE0FFEF4408FF90BC
:101A9000012FEFF022122B6F227F081221E5900117
:101AA00049EEF0A3EFF07F051221E5900147EEF03B
:101AB000A3EFF0122B13E4FCFD90014B12031F90D7
:101AC000014B120313900147E0FEA3E0FFE4FCFD8D
:101AD00012017590014B12031F90014B1203077BFB
:101AE000037A007900780012017590014B12031FF0
:101AF00090014B12030778021202C790014B1203A8
:101B00001F90014B120307C004C005C006C0079018
:101B10000149E0FEA3E0FFAB07AA06E4F9F8D0070D
:101B2000D006D005D00412020090014B12031F7F93
:101B3000FF7EFF7D007C0090014B120313D3120245
:101B4000B640057EFF7FFF2290014B1203072275EE
:101B5000C7AA75C75575FD5A75C7AA75C75575FDCE
:101B6000A5787FE4F6D8FD9000007FFF7E03E4F0C7
:101B7000A3DFFCDEFA758120021BB60229B0E493D4
:101B8000A3F8E493A34003F68001F208DFF4802970
:101B9000E493A3F85407240CC8C333C4540F44205F
:101BA000C8834004F456800146F6DFE4800B01024E
:101BB000040810204080902613E47E019360BCA3AB
:101BC000FF543F30E509541FFEE493A360010ECF9C
:101BD00054C025E060A840B8E493A3FAE493A3F8C6
:101BE000E493A3C8C582C8CAC583CAF0A3C8C58286
:101BF000C8CAC583CADFE9DEE780BE7F081221E5D7
:101C0000900141EEF0A3EFF07F061221E590013F35
:101C1000EEF0A3EFF0122B13E4FCFD90014312034E
:101C20001F90014312031390013FE0FEA3E0FFE485
:101C3000FCFD12017590014312031F900143120332
:101C4000077B4B7A007900780012017590014312EE
:101C5000031F900143120307C004C005C006C0075C
:101C6000900141E0FEA3E0FFAB07AA06E4F9F8D03B
:101C700007D006D005D00412020090014312031FC2
:101C80007FFF7EFF7D007C00900143120313D3127F
:101C900002B640057EFF7FFF229001431203072218
:101CA0009001CBEFF09001CCEDF09001CBE0FFEF95
:101CB000C394095003D38001C340031229D5900176
:101CC000CCE0FFEFC394085003D38001C34003125C
:101CD00029D59001CBE0FF75F003EF902BC21203E2
:101CE0005C120391AE02AF01EF4E6003D38001C3DB
:101CF00040031229D59001CCE0FF7401A8070880A9
:101D000002C333D8FCFF9001CDEFF09001CDE0FF8E
:101D1000EFF4FF9001CDEFF0C2AF9001CBE0FF7484
:101D2000252FF582E43401F583C083C082E0FF9063
:101D300001CDE0FEEF5EFFD082D083EFF0D2AF2284
:101D40009001C8EFF09001C9EDF09001C8E0FFEFFD
:101D5000C394095003D38001C340031229D59001D5
:101D6000C9E0FFEFC394085003D38001C3400312BE
:101D700029D59001C8E0FF75F003EF902BC2120344
:101D80005C120391AE02AF01EF4E6003D38001C33A
:101D900040031229D59001C9E0FF7401A80708800B
:101DA00002C333D8FCFF9001CAEFF0C2AF9001C864
:101DB000E0FF74252FF582E43401F583C083C082EF
:101DC000E0FF9001CAE0FEEF4EFFD082D083EFF03B
:101DD000D2AF22122B6190012FE0FFEF4401FF9060
:101DE000012FEFF0122B6990015112032B0000001C
:101DF000647D017F031217B990012FE0FFEF20E10E
:101E00001190015112032B000003E87D027F0212A2
:101E100017B9900136E0FFEF75F00CA42468F58245
:101E2000E43400F5831203077B007A007900780020
:101E3000C31202B66003D38001C34003122B6F901C
:101E40000136E0FFEF75F00CA42468F582E434005D
:101E5000F58312030790015112031F7D037F0712C0
:101E600017B922122B65122B6C90012FE0FFEF5453
:101E7000FEFF90012FEFF090012FE0FFEF54F7FFEE
:101E800090012FEFF090012FE0FFEF54FBFF900146
:101E90002FEFF07D017F031220F97D027F021220D7
:101EA000F9900136E0FFEF75F00CA4246CF582E4A4
:101EB0003400F5831203077B007A0079007800C3B1
:101EC0001202B66003D38001C34003122B6F90014E
:101ED00036E0FFEF75F00CA4246CF582E43400F5D5
:101EE0008312030790015112031F7D027F0712170F
:101EF000B9229001CEEFF09001CFEDF09001D0E447
:101F0000F09001D0E0FFEFC3941050689001D0E052
:101F1000FFEF75F006A42406F582E43400F5831281
:101F200003077B007A0079007800C31202B6503CA8
:101F30009001D0E0FFEF75F006A4240AF582E434A6
:101F400000F583E0FF9001CEE0FEEFB5061E9001A4
:101F5000D0E0FFEF75F006A4240BF582E43400F521
:101F600083E0FF9001CFE0FEEF6E60089001D0E0CB
:101F700004F0808D9001D0E0FF2212292D90020400
:101F8000EFF090012EE0FF900204E0FEEE6F601B88
:101F9000900204E0FF90012EEFF090015112032B0C
:101FA000000000327D007F041217B990012FE0FF7E
:101FB000EF30E03F90012FE0FFEF20E11B90012F79
:101FC000E0FFEF30E212121BFB900130EEF0A3EFC6
:101FD000F07D017F02121D4090012FE0FFEF30E302
:101FE00012121A99900132EEF0A3EFF07D007F03F8
:101FF000121D407D077F08121D40229001EBEFF07B
:102000009001ECEDF09001EBE0FFEFC3940350037F
:10201000D38001C340031200039001ECE0FF900164
:10202000EBE0FE740A2EF8A6079001EBE0FFEF123A
:10203000040C203F002053012067020000207A7822
:102040000AE6FF780DE6FEEEC39F5003D38001C37E
:10205000928022780BE6FF780DE6FEEEC39F5003D8
:10206000D38001C3929222780CE6FF780DE6FEEE53
:10207000C39F5003D38001C3928122122B4BEF33B5
:1020800095E0FEFDFC7B407A9C790078001201759A
:10209000EF2480FFEE34A8FEED3412FDEC3401FC99
:1020A00090018412031F7BE87A0379007800900185
:1020B0008412030712254DC3E49FFFE49EFE9001A6
:1020C00082EEF0A3EFF053C98F53C8FE43C980439B
:1020D000C908900182E0FEA3E0FFEF54FFF5CA902B
:1020E0000182E0FEA3E0FFEEFF7E008FCB75CC0007
:1020F00075CD00439B80D2CA229001D4EFF09001AD
:10210000D5EDF09001D4E0FFEFC394095003D380E4
:1021100001C340031229D59001D5E0FFEFC3940815
:102120005003D38001C340031229D59001D4E0FFAE
:102130009001D5E0FD121EF29001D6EFF09001D68D
:10214000E0FFEF6410601B9001D6E0FFEF75F00632
:10215000A42406F582E43400F58312032B0000006A
:1021600000229001D4E0FF9001D5E0FD121CA022D6
:1021700075C7AA75C755439F0175A60C75A700754D
:10218000AF0475C7AA75C75543A4019001DDE5AE3C
:10219000F075A60D75A70075AF0475C7AA75C7556C
:1021A00043A4019001DEE5AEF09001DEE0FFEF54C4
:1021B0000FFF9001DEEFF075C7AA75C755539FFE5C
:1021C0009001DDE0FF7E00EF75F010A4FFAEF0900F
:1021D00001DEE0FD7C00EE4CFEEF4DFF9001DFEEF6
:1021E000F0A3EFF022900200EFF0900200E0FFEF8A
:1021F00012040C21FD052214060000222B53E8F0E6
:1022000043E80543B11053B2EF75F60043F620439F
:10221000E101802353E8F043E80643B10853B2F7E5
:1022200075F60043F64043E101800C43E80853E8AB
:10223000F843E101122A40C2EFD2EE30EFFDAFC306
:102240007E00EF75F010A4FFAEF0E5C2540FFD7CE8
:1022500000EE4CFEEF4DFF229001D7EFF09001D839
:10226000EDF09001D7E0FFEFC394095003D3800154
:10227000C340031229D59001D8E0FFEFC394085062
:1022800003D38001C340031229D59001D7E0FF900A
:1022900001D8E0FD121EF29001D9EFF09001D9E0D3
:1022A000FFEF641060179001D9E0FFEF75F006A40E
:1022B0002406F582E43400F583120307227F007EB2
:1022C000007D007C00229001E9EFF09001EAEDF042
:1022D0009001E9E0FFEF30E00F9001EAE0FFEFB49A
:1022E0000104D2938002C2939001E9E0FFEF30E154
:1022F0000F9001EAE0FFEFB40104D2948002C2948F
:102300009001E9E0FFEF30E20F9001EAE0FFEFB467
:102310000104D2978002C2979001E9E0FFEF30E319
:102320000E9001EAE0FFEFB40103D2B022C2B02266
:1023300075C7AA75C755439F0175A63075A7007567
:10234000AF0475C7AA75C75543A4019001E1E5AE76
:10235000F075A63175A70075C7AA75C75543A401C6
:102360009001E2E5AEF075C7AA75C755539FFE9080
:1023700001E1E0FF7E00EF25E0FFEE33FE9001E299
:10238000E0FDED5401FD7C00EE4CFEEF4DFF229090
:1023900001F1EFF09001F2EDF09001F1E0FF90011A
:1023A000F1EFF09001F2E0FFEF700990012EE0FFF5
:1023B0001204CE229001F2E0FFEF25E024E4F58242
:1023C000E4342BF583E493FF9001F2E0FEEE25E088
:1023D00024E5F582E4342BF583E493FD122A7F2271
:1023E0009001E3EEF0A3EFF09001E3E0FEA3E0FF45
:1023F000EE5401FE9001E3EEF0A3EFF09001E3E074
:10240000FEA3E0FFEEA2E713FEEF13FF8F0890019B
:10241000E3E0FEA3E0FFEF5401F50975C7AA75C715
:102420005585088475C7AA75C75585098522900109
:102430001C12038890011FEDF090011C120368909C
:10244000012212038890012074FF75F0FF1201250C
:10245000AFF0FED3EF9400EE9400401590011FE022
:10246000FF900122E475F001120371EF12007480F5
:10247000D490011C120368229001EDEFF09001EE60
:10248000EDF09001EDE0FF9001EDEFF09001EEE056
:10249000FFEF12040C24A80124B40224B00324ACDE
:1024A0000424B807000024BC1227BB22122B772279
:1024B000122B7622122B7522121F7A22122B6F22D8
:1024C0009001F7EFF09001F8EDF09001F7E0FF9048
:1024D00001F7EFF09001F8E0FFEF12040C24F00098
:1024E00024F40124F80224FC032500040000250440
:1024F00012078322120D4B22121221221213922252
:1025000012150322122B6F229001F3EFF09001F4C9
:10251000EDF09001F3E0FF9001F3EFF09001F4E0B3
:10252000FFEF12040C253200253601253A02000087
:102530002549122ACB221209A02290012FE0FFEF99
:102540004404FF90012FEFF022122B6F22C2D5E836
:1025500030E70FB2D5E4C39BFBE49AFAE499F9E4BF
:1025600098F8EC30E717B2D5122583120200E4C3C5
:102570009BFBE49AFAE499F9E498F88003120200CC
:1025800030D50DE4C39FFFE49EFEE49DFDE49CFC7A
:1025900022900202EFF0900202E0FFD3EF648094F9
:1025A0009440089002027414F08013900202E0FF3D
:1025B000C3EF6480946C500690020274ECF0122B0E
:1025C00051900202E0FF12286012207B900202E08C
:1025D000FF229001FBEFF09001FCEDF09001FBE099
:1025E000FF9001FBEFF09001FCE0FFEF12040C25DF
:1025F000FF00260301260702260B030000260F1208
:1026000016742212295A22121DD322121E6322127C
:102610002B6F22603C0068000000000000000000FA
:1026200000000000000001000000000000000000A9
:10263000002710000027100000000000000001002B
:102640000000000036EE80000000010000000000E5
:10265000A4CB8000C29053B3FE43B401A2AF92005A
:1026600075C7AA75C75575910143B40175C7AA7599
:10267000C755759100A20092AF53DF3FC2DFD2DC95
:1026800020DCFD75D10075D90575D40075DC03D249
:10269000DF22C0E0C0F0C083C082C0D075D000C0CF
:1026A00000C001C002C003C004C005C006C007C20C
:1026B000CF122B44D007D006D005D004D003D002CF
:1026C000D001D000D0D0D082D083D0F0D0E032780A
:1026D0000D06780AE6FF780DE6FEEEC39F5003D3A1
:1026E0008001C39280780BE6FF780DE6FEEEC39F73
:1026F0005003D38001C39292780CE6FF780DE6FE7A
:10270000EEC39F5003D38001C3928122C0E0C0F08A
:10271000C083C082C0D075D000C000C001C002C05C
:1027200003C004C005C006C007122AFBD007D006AC
:10273000D005D004D003D002D001D000D0D0D082B8
:10274000D083D0F0D0E032C0E0C0F0C083C082C0FF
:10275000D075D000C000C001C002C003C004C005D5
:10276000C006C0071226CFD007D006D005D004D0AF
:1027700003D002D001D000D0D0D082D083D0F0D00E
:10278000E032780A7600780B7600780C7600780DC7
:102790007600C280C281C29253B1FE43B20153B1EE
:1027A000FD43B20253B3FB43B40453890F43892062
:1027B000758D88758B88D2ABD28E2290012EE4F075
:1027C00090012FE4F0900130E4F0A3E4F0900132A6
:1027D000E4F0A3E4F0900135E4F0900136E4F090E9
:1027E00001347403F07D007F05121D407D077F08D2
:1027F000121D40229001F9EFF09001FAEDF09001E6
:10280000FAE0FF9001F9E0FEEED39F40109001FA4C
:10281000E0FF9001F9E0FEC3EE9FFF800E9001F90A
:10282000E0FF9001FAE0FEC3EE9FFF2212233090FA
:1028300001E5EEF0A3EFF09001E5E0FEA3E0FFEF8D
:1028400024CEFFEE34FFFE1223E09001E5E0FEA36C
:10285000E0FF9001C2EEF0A3EFF09001C4E4F0229B
:10286000900201EFF09001C2E0FEA3E0FFEF24CE62
:10287000FFEE34FFFE900201E0FDED3395E0FCC376
:10288000EF9DFFEE9CFE1223E0900201E0FF90011D
:10289000C4EFF022900136E4F07D007F07121D4066
:1028A0007D007F0F1222C6900135E4F07D007F0687
:1028B000121D407D007F02121D409001347404F00F
:1028C0007D007F05121D40229000F4E4F09000F599
:1028D000E4F09000F6E4F09000FD74FFF09000F357
:1028E00074FFF09000FBE4F0A3E4F09000F9E4F052
:1028F000A3E4F09000F7E4F0A3E4F0227B017A0077
:102900007906900120E4F0A37460F07D0012242E7B
:1029100090000212032B00000000900066E4F0A378
:10292000E4F0900001E4F0900000E4F02290020353
:10293000E4F020860E900203E0FFEF4401FF9002D6
:1029400003EFF020870E900203E0FFEF4402FF90B8
:102950000203EFF0900203E0FF22900136E4F07DE5
:10296000007F07121D407D007F0F1222C6900135A7
:10297000E4F07D007F06121D409001347403F07D69
:10298000007F05121D40227D017F061220F97D0285
:102990007F061220F97D037F061220F97D047F0651
:1029A0001220F99000F374FFF09000FD74FFF02204
:1029B000C2AF122B3D122A1D122ACB122AED122B66
:1029C000571228C8122B7A122B2ED2AF1218E7E416
:1029D0007E007F00229001B012032B0000000090C7
:1029E00001B01203077B017A007900780012015AC6
:1029F0009001B012031F80E722900208EFF09002CE
:102A000008E0FFEF7006E47E007F0022900208E0FD
:102A1000FFEFFD7C007E147FB41200BA2212000E7C
:102A200012265412001E122A9D7D007F0F1222C60C
:102A3000122B73122B74122782122ADE122B1C22E5
:102A40009001FFE4F09001FFE0FFEFC39403500F0B
:102A5000C2EFD2EE30EFFD9001FFE004F080E622FD
:102A60009001E7EFF09001E8EDF09001E7E0FF90D2
:102A700001E7EFF09001E8E0FF80001200032290F0
:102A800001EFEFF09001F0EDF09001EFE0FF900129
:102A9000F0E0FEEE902BF293FD120EEE2253B3F710
:102AA00043B40853B3EF43B41053B37F43B48053DC
:102AB000ACFE43AD01227B017A017925900120E42F
:102AC000F0A37409F07D0012242E229001B8E4F0E6
:102AD000A3E4F09001BBE4F09001BAE4F022C285D7
:102AE00053B1DF53B2DF5389F0438901229001DAF9
:102AF000E4F0A3E4F09001DCE4F022C28C758CFEDB
:102B0000758ADED28CB28522758CFE758ADED2A9DA
:102B1000D28C229001DFE0FEA3E0FF22C29553B3E6
:102B2000DF53B4DF22122B5D900206EFF0227D010D
:102B30007F08121D4022C2A9C28CC285221228FC25
:102B4000122AB622900000E004F0229001C4E0FFB7
:102B500022C2CA539B7F22900205E4F022122B4B23
:102B60002243DE042253DEFB22D29522C29522802C
:102B7000FE2222222222222222222200FF00007F85
:102B8000000000FF00007FFF00007F0000FFFF004B
:102B90007F7F00AAAAFF55557FFFFFFF7F7F7FFF42
:102BA0000000FFFF0000FF0000FFFF0000FFFF002C
:102BB000FFFFFFFF03E803E803E803E803E803E897
:102BC00003E8FF2A60000000FF2508FF19DBFF2350
:102BD0008FFF0B8FFF24C0FF25D2FF247801030253
:102BE00004030506000001030104020302040303B9
:072BF00003040001020304CD
:00000001FF
