:030000000220A635
:1020A60075C7AA75C75575FD5A75C7AA75C75575FB
:1020B600FDA5787FE4F6D8FD9000007FFF7E03E45F
:0C20C600F0A3DFFCDEFA75817002210D32
:03000B000229299E
:10292900C0E0C0F0C083C082C0D075D000C000C074
:1029390001C002C003C004C005C006C007122E4F63
:10294900D007D006D005D004D003D002D001D000E2
:0B295900D0D0D082D083D0F0D0E0328C
:03001B0002296453
:10296400C0E0C0F0C083C082C0D075D000C000C039
:1029740001C002C003C004C005C006C007122B7505
:10298400D007D006D005D004D003D002D001D000A7
:0B299400D0D0D082D083D0F0D0E03251
:03002B000228AFF9
:1028AF00C0E0C0F0C083C082C0D075D000C000C0EF
:1028BF0001C002C003C004C005C006C007C2CF12CA
:1028CF002BC8D007D006D005D004D003D002D0013A
:0D28DF00D000D0D0D082D083D0F0D0E03235
:062EE100122649D2AF22C7
:10264900754AC1754B8053C98F53C8FE43C980432E
:10265900C908122EE78F49AF49EF3395E0FE7C0098
:102669007D28120E39EF254BF54BEE354AF54AAF69
:102679004BEF54FFF5CAE54AFF7E008FCB75CC00BE
:0826890075CD00439B80D2CA0D
:012691002226
:1022FB00753AC1753B80539B7FC2CA122EE78F374D
:10230B00AF37EF3395E0FE7C007D28120E39EF25B9
:10231B003BF53BEE353AF53AAF3BEF54FFF5CAE5EB
:10232B003AFF7E008FCBAFCD7E008E388F39E539EB
:10233B00753900F538AFCC7E00EF2539F539EE3520
:10234B0038F538C3E539953BE538953A401DE53B03
:10235B0024FFF539E53A34FFF538E538FF7E00EF19
:10236B0054FFF5CDAF39EF54FFF5CC439B80D2CA68
:01237B00223F
:040ADD004102690069
:0219C3008F296A
:1019C500C3E529648094805010AF29EF3395E0FE7C
:1019D500C3E49FFFE49EFE8007AF29EF3395E0FE49
:1019E5008E2E8F2FA2AF9202C2AF75C7AA75C755AB
:1019F500439F01A20292AF75A63075A70075AF048B
:101A0500A2AF9202C2AF75C7AA75C75543A401A27A
:101A15000292AF85AE2A75A63175A700A2AF9202D4
:101A2500C2AF75C7AA75C75543A401A20292AF8577
:101A3500AE2BA2AF9202C2AF75C7AA75C755539F09
:101A4500FEA20292AFAF2A7E00EF25E0FFEE33FE45
:101A5500E52B5401FD7C00EF2DF52DEE3CF52CC357
:101A6500E52964809480500CE52D252FFFE52C3564
:101A75002EFE800BC3E52D952FFFE52C952EFE8EB2
:101A85002C8F2DAF2DEF5401F52BE52CC313FEE55F
:101A95002D13FF8F2A75C7AA75C755852A8475C763
:0D1AA500AA75C755852B85900269E529F0CB
:011AB2002211
:062EE700900269E0FF22E9
:0A2E650053B3FD43B402438E022272
:0A2E6F0053B3FD43B402538EFD225D
:0D000E0053B1BF53B2BF53B17F53B27F2235
:102BF1008F1FE51F1210292C02002C0C0100002C44
:102C0100162086047F0080027F01222087047F0036
:082C110080027F01227F0122F5
:092E9700C29553B3DF43B42022BD
:032F2800D295221D
:032F2B00C295222A
:022D92008F555B
:102D9400122EE78F56E55665556008AF551219C3D4
:032DA4001222FBFD
:012DA7002209
:042F1000122EE72274
:1029DA00C293C294C297C2B0C280C292C28153B398
:1029EA00F743B40853B3EF43B41053B37F43B480EF
:1029FA0053ACFE43AD0153B1FE43B20153B3FB43A3
:092A0A00B40453B1FD43B20222F1
:102A4A008F5FE55F1210292A6A002A6D012A700237
:102A5A002A73032A76042A79052A7C0600002A7E2C
:102A6A00D29322D29422D29722D2B022D28022D2D8
:052A7A009222D281222E
:102A7F008F60E5601210292A9F002AA2012AA50261
:102A8F002AA8032AAB042AAE052AB10600002AB3EE
:102A9F00C29322C29422C29722C2B022C28022C203
:052AAF009222C2812209
:102AB4008F61E5611210292AD4002AD7012ADA028B
:102AC4002ADD032AE0042AE3052AE60600002AE8B0
:102AD400B29322B29422B29722B2B022B28022B22E
:052AE4009222B28122E4
:1023F4008F62E562121029241400241E012428028D
:10240400243203243C042446052450060000245AA4
:102414002093047F0080027F01222094047F0080A7
:10242400027F01222097047F0080027F012220B0D6
:10243400047F0080027F01222080047F0080027FCD
:1024440001222092047F0080027F01222081047FE8
:092454000080027F01227F0022BA
:102D620053E8F043E80543B11053B2EF75F6004360
:082D7200F62043E101C2EF224B
:052F0B00C2EFD2EE222E
:092EA00030EF04C2EFD322C3227B
:102D1400AFC37E00EF75F010A4FFAEF0E5C2540F10
:0A2D2400FD7C00EE4CFEEF4DFF2297
:1001C200C29053B3FE43B401A2AF920375C7AA759E
:1001D200C75575910143B40175C7AA75C755759185
:1001E20000A20392AF53DF3FC2DFD2DC20DCFD75F9
:0D01F200D10075D90575D40075DC04D2DF8D
:0101FF0022DD
:042F140043DE042272
:042F180053DEFB2267
:080AE100034100000001440084
:102E070053890F438920758DBA758BBAD2ABD28E91
:012E17002298
:1025B2008F578D58E558C313FFAE5774412EF8A6B6
:1025C20007E55712102925D50025E30125F1020060
:1025D2000025FEE544C395415003D38001C3928098
:1025E20022E544C395425003D38001C3929222E56F
:0D25F20044C395435003D38001C39281225E
:102B75000544E544C395415003D38001C39280E5E4
:102B850044C395425003D38001C39292E544C39553
:0A2B9500435003D38001C392812254
:0F2E2900C28553B1DF43B2205389F043890122A0
:0B2E4400758CFE758DE8D2A9D28C229F
:072ED300C2A9C28CC28522D6
:0B2E4F00C28C758CFE758DE8D28C22C1
:10287100C2AF75C7AA75C755439F0175C7AA75C76A
:102881005543A50175AF2275A70275A60075AEFF68
:1028910075C7AA75C75543A40175C7AA75C755530E
:0E28A100A5FE75C7AA75C755539FFED2AF227C
:0821EC008B308A3189328D33FA
:1021F400753502753600C2AF75C7AA75C755439FBA
:102204000175C7AA75C75543A501753400E534C3E4
:102214009533504AE534C39480504375AF21AF34AD
:102224007E00EF2536FFEE3535FEEEFF7E00EF54DF
:10223400FFF5A7AF36EF2534FFEF54FFF5A6AB301B
:10224400AA31A932AF348F82758300120DEAFF8F51
:10225400AE75C7AA75C75543A401053480AF75C7C9
:10226400AA75C75553A5FE75C7AA75C755539FFED2
:02227400D2AFE7
:012276002245
:082A13008B3C8A3D893E8D3F9A
:102A1B00754000E540C3953F5024E540C39480507A
:102A2B001DAF40EF90020093FFAB3CAA3DA93EAE19
:0E2A3B00408E82758300EF120E17054080D585
:012A4900226A
:102C3D00122EE1122F20122F24122B9F12001E1282
:102C4D002EDA122F1C122C5E121D7D1217A180F888
:012C5D002254
:100AE90041025DFF410260FF41025FFF41025CFF7D
:040AF90041025E0058
:0A2E790090025D74FFF0122DD022CC
:0A2E830090026074FFF012299F22F4
:0A2E8D0090025F74FFF0122F342250
:10002E007BFF7A00792E7F647E007D007C001218A3
:10003E00B490025CEFF0122CDD8F6390025EE0FF55
:10004E00E5636F70030201BBE563121029006801BE
:10005E0000B7020106030000016490025EE0FFEFAC
:10006E007026122EF390025DE0FFC3EF6480948041
:10007E0050167BFF7A2E79797FD07E077D007C002B
:10008E001218B490025DEFF090025FE0FFC3EF64D0
:10009E0080948050030201BB90025FE0FF12215258
:1000AE0090025F74FFF00201BB90025EE0FFEF7002
:1000BE0026122EF9900260E0FFC3EF648094805008
:1000CE00167BFF7A2E79837FD07E077D007C00120F
:1000DE0018B4900260EFF090025FE0FFC3EF64800F
:1000EE00948050030201BB90025FE0FF12215290F8
:1000FE00025F74FFF00201BB90025DE0FFC3EF648C
:10010E00809480400E90025DE0FF12215290025DBD
:10011E0074FFF0900260E0FFC3EF64809480400EA5
:10012E00900260E0FF12215290026074FFF0900284
:10013E005FE0FFC3EF648094805072122EFF7BFF4E
:10014E007A2E798D7FB87E0B7D007C001218B490CC
:10015E00025FEFF0805790025DE0FFC3EF64809482
:10016E00804011122C1990025DE0FF122152900274
:10017E005D74FFF0900260E0FFC3EF6480948040F6
:10018E0011121FEB900260E0FF1221529002607478
:10019E00FFF090025FE0FFC3EF64809480400E900A
:1001AE00025FE0FF12215290025F74FFF090025E38
:0301BE00E563F006
:0101C100221B
:102B9F0012000E7BFF7A00792E7F647E007D007C11
:102BAF00001218B490025CEFF090025CE0FFC3EFEC
:092BBF0064809480500280FE2223
:102CDD007564007F00122BF1EF70034364017F01D7
:0B2CED00122BF1EF7003436402AF6490
:012CF80022B9
:100AFD00410265FF41026100410262004102630053
:040B0D00410264003D
:0B2E5A00300404122E4422122ED3225A
:10276700900261E0FFEF7022D204122E5A7BFF7AAB
:102777002779677FE87E037D007C001218B49002FA
:1027870065EFF0900261E004F022900261E0FFEF54
:10279700B40110C204122E5A90026574FFF0900221
:0327A70061E4F0FA
:0127AA00220C
:1027AB00900262E0FFEF7022D204122E5A7BFF7A66
:1027BB002779AB7F647E007D007C001218B49002F9
:1027CB0065EFF0900262E004F022900262E0FFEF0E
:1027DB00B40110C204122E5A90026574FFF09002DD
:0327EB0062E4F0B5
:0127EE0022C8
:101F2A00900263E0FFEF601D900263E0FFEF64023E
:101F3A006013900263E0FFEF64046009900263E0BB
:101F4A00FFEFB40622D204122E5A7BFF7A1F792A97
:101F5A007F647E007D007C001218B4900265EFF069
:101F6A00900263E004F022900263E0FFEF640160F4
:101F7A0009900263E0FFEFB40522C204122E5A7BD5
:101F8A00FF7A1F792A7F647E007D007C001218B4D4
:101F9A00900265EFF0900263E004F022900263E0A1
:101FAA00FFEFB40322C204122E5A7BFF7A1F792A4A
:101FBA007F2C7E017D007C001218B4900265EFF040
:101FCA00900263E004F022900263E0FFEFB407108E
:101FDA00C204122E5A90026574FFF0900263E4F074
:011FEA0022D4
:10237C00900264E0FFEF6009900264E0FFEFB402AA
:10238C0022D204122E5A7BFF7A23797C7F647E0042
:10239C007D007C001218B4900265EFF0900264E0AE
:1023AC0004F022900264E0FFEFB40122C204122E6A
:1023BC005A7BFF7A23797C7F647E007D007C00123F
:1023CC0018B4900265EFF0900264E004F0229002E1
:1023DC0064E0FFEFB40310C204122E5A900265742D
:0723EC00FFF0900264E4F031
:0123F30022C7
:042F1C00122E292226
:102277008F65900265E0FFC3EF648094805073E53B
:10228700656005E565B403187BFF7A2779AB7F6442
:102297007E007D007C001218B4900265EFF080503C
:1022A700E565B401187BFF7A1F792A7F647E007D7C
:1022B700007C001218B4900265EFF08033E565B436
:1022C70004187BFF7A23797C7F647E007D007C0085
:1022D7001218B4900265EFF080167BFF7A277967B2
:1022E7007F647E007D007C001218B4900265EFF0D9
:0422F700D322C32209
:102DA80000000000010000000100003C010000B428
:042DB80001000168AD
:0E0B1100410266004102680041026700C10512
:062EED007F011222772292
:102C5E00122CDD900267EFF0900267E0FFEF640246
:102C6E0060057F01122277C2057D017FC8122E18E2
:012C7E002233
:102C1900900267E4F0900266E004F0900266E0FF3B
:102C2900EFD3940F4005900266E4F0900266E0FF4E
:042C390012166422E9
:101FEB00900267E4F0900268E004F07F00122EBBD1
:101FFB007F01122EBB7F02122EBB7F03122EBB90D2
:10200B000268E0FFEFB401157F0012000390026637
:10201B007401F0900266E0FF121664806290026811
:10202B00E0FFEFB4020C7F001200037F03120003EA
:10203B00804D900268E0FFEFB4030C7F00120003A9
:10204B007F021200038038900268E0FFEFB4040CAB
:10205B007F001200037F0112000380237BFF7A2E87
:10206B0079ED7FF47E017D007C001218B49002683C
:10207B00E4F0900266E4F0900266E0FF12166490C2
:10208B000268E0FF7E04EF8EF0A4FFAEF074A82F81
:0B209B00F9742D3EFA7BFF121E5D223F
:062EF3007F00122277228D
:062EF9007F001222772287
:062EFF007F001222772281
:102DD000900267E4F0900266E4F0900266E0FF1271
:032DE00016642254
:10299F00900267E0FFEFB40211900267E4F07F024C
:1029AF00122277122F0512250F2220050FD2057D37
:1029BF00107F05122E187F0412227722C2057D0187
:0B29CF007FC8122E187F03122277220F
:012F3400227A
:1026DB00122DBC900268E4F0900266E4F07F0812C1
:1026EB001664900268E0FF7E04EF8EF0A4FFAEF05C
:1026FB0074A82FF9742D3EFA7BFF121E5D7F021218
:10270B0022777F001200037F011200037F02120069
:07271B00037F0312000322FB
:1024BC00900268E4F0900266E4F0900266E0FF128D
:1024CC001664900268E0FF7E04EF8EF0A4FFAEF07D
:1024DC0074A82FF9742D3EFA7BFF121E5D7BFF7AD8
:1024EC002E79ED7FF47E017D007C001218B47F0004
:1024FC00122EBB7F01122EBB7F02122EBB7F03124A
:03250C002EBB22C1
:042F20001229DA2276
:080003008F66AF66122A4A2243
:082EBB008F67AF67122A7F2226
:082EC3008F68AF68122AB422E7
:082ECB008F69AF691223F422A4
:1025FF0000000000FF00007F000000FF00007FFFD1
:10260F0000007F0000FFFF007F7F00AAAAFF555543
:10261F007FFFFFFF7F7F7FFF0000FFFF0000FF00B6
:10262F0000FFFF0000FFFF00FFFFFFFF03E803E8CD
:0A263F0003E803E803E803E803E8FA
:100B1F004102430041024DFF41023CFF41023BFFB6
:100B2F00410242FF410241FF410240FF42024B009E
:0B0B3F00004202490000420247000093
:102D2E008F598D5AE559D3955A4008C3E559955A8E
:0A2D3E00FF8006C3E55A9559FF22F5
:102D48008F6AE56A7006E47E007F0022AF6AEFFDB5
:0A2D58007C007E147FB4120E4B22A3
:1015270090023B74FFF0900242E0FFC3EF648094A7
:10153700804003021663900241E0FFC3EF6480948A
:10154700804003021663900240E0FFC3EF6480947B
:1015570080400302166390023CE0FF90024DEFF0DB
:1015670090023CE004F090023CE0FFC3EF648094FB
:1015770087400590023CE4F090023CE0FFEF339592
:10158700E0FE90262675F003EF12101DEE75F003AE
:10159700A42583F583E493FD900244E0FF122D2EEA
:1015A700122D4890024BEEF0A3EFF090023CE0FFC3
:1015B700EF3395E0FE90262775F003EF12101DEE2E
:1015C70075F003A42583F583E493FD900245E0FFBE
:1015D700122D2E122D48900249EEF0A3EFF0900243
:1015E7003CE0FFEF3395E0FE90262875F003EF12FD
:1015F700101DEE75F003A42583F583E493FD900297
:1016070046E0FF122D2E122D48900247EEF0A3EF71
:10161700F090024BE0FEA3E0FFE4FCFD7BFF7A1AAB
:1016270079B31218B4900242EFF0900249E0FEA39A
:10163700E0FFE4FCFD7BFF7A1B79A11218B490024E
:1016470041EFF0900247E0FEA3E0FFE4FCFD7BFFE3
:0D1657007A1C798F1218B4900240EFF02237
:10272200900242E0FF122152900241E0FF12215238
:10273200900240E0FF12215290023BE0FF12215230
:1027420090023B74FFF090024274FFF090024174D9
:10275200FFF090024074FFF090023C74FFF0900290
:052762004D74FFF022A0
:101AB30090023CE0FFEF3395E0FE90262675F0039D
:101AC300EF12101DEE75F003A42583F583E493FF55
:101AD300900244E0FEEE6F706A90024274FFF09051
:101AE3000242E0FFC3EF648094804003021BA09096
:101AF3000241E0FFC3EF648094804003021BA09087
:101B03000240E0FFC3EF648094804003021BA09077
:101B1300023CE0FFEF3395E0FEEF25E0FFEE33FEFE
:101B2300743B2FF58274263EF583E493FE74019390
:101B3300FFE4FCFD7BFF7A1579271218B490023B72
:101B4300EFF02290023CE0FFEF3395E0FE90262673
:101B530075F003EF12101DEE75F003A42583F583D2
:101B6300E493FF900244E0FEEED39F4008900244CA
:101B7300E014F08006900244E004F07B017A0279DD
:101B83004412283190024BE0FEA3E0FFE4FCFD7B0E
:0E1B9300FF7A1A79B31218B4900242EFF022D2
:101BA10090023CE0FFEF3395E0FE90262775F003AD
:101BB100EF12101DEE75F003A42583F583E493FF66
:101BC100900245E0FEEE6F706A90024174FFF09062
:101BD1000242E0FFC3EF648094804003021C8E90B8
:101BE1000241E0FFC3EF648094804003021C8E90A9
:101BF1000240E0FFC3EF648094804003021C8E909A
:101C0100023CE0FFEF3395E0FEEF25E0FFEE33FE0F
:101C1100743B2FF58274263EF583E493FE740193A1
:101C2100FFE4FCFD7BFF7A1579271218B490023B83
:101C3100EFF02290023CE0FFEF3395E0FE90262783
:101C410075F003EF12101DEE75F003A42583F583E3
:101C5100E493FF900245E0FEEED39F4008900245D9
:101C6100E014F08006900245E004F07B017A0279ED
:101C710044122831900249E0FEA3E0FFE4FCFD7B21
:0E1C8100FF7A1B79A11218B4900241EFF022F5
:101C8F0090023CE0FFEF3395E0FE90262875F003BD
:101C9F00EF12101DEE75F003A42583F583E493FF77
:101CAF00900246E0FEEE6F706A90024074FFF09073
:101CBF000242E0FFC3EF648094804003021D7C90DA
:101CCF000241E0FFC3EF648094804003021D7C90CB
:101CDF000240E0FFC3EF648094804003021D7C90BC
:101CEF00023CE0FFEF3395E0FEEF25E0FFEE33FE21
:101CFF00743B2FF58274263EF583E493FE740193B3
:101D0F00FFE4FCFD7BFF7A1579271218B490023B94
:101D1F00EFF02290023CE0FFEF3395E0FE90262893
:101D2F0075F003EF12101DEE75F003A42583F583F4
:101D3F00E493FF900246E0FEEED39F4008900246E8
:101D4F00E014F08006900246E004F07B017A0279FD
:101D5F0044122831900247E0FEA3E0FFE4FCFD7B34
:0E1D6F00FF7A1C798F1218B4900240EFF02218
:042F2400122E072240
:102831008B4C8A4D894EAB4CAA4DA94E120DD1FD40
:102841007F001225B2AB4CAA4DA94E75820175834A
:1028510000120DEAFD7F011225B2AB4CAA4DA94E23
:10286100758202758300120DEAFD7F021225B222E4
:101664008F6B122722E56B700A7BFF7A2579FF12B4
:10167400283122E56BD39403400302177AE56B64A7
:1016840001600302174090024DE4F090023CE4F044
:1016940090024DE0FFEF3395E0FE90262675F003AF
:1016A400EF12101DEE75F003A42583F583E493FF78
:1016B400900244EFF090024DE0FFEF3395E0FE908E
:1016C400262775F003EF12101DEE75F003A4258391
:1016D400F583E493FF900245EFF090024DE0FFEFB5
:1016E4003395E0FE90262875F003EF12101DEE7579
:1016F400F003A42583F583E493FF900246EFF07B87
:10170400017A02794412283190024DE0FFEF3395BB
:10171400E0FEEF25E0FFEE33FE743B2FF5827426E6
:101724003EF583E493FE740193FFE4FCFD7BFF7AB2
:101734001579271218B490023BEFF022E56B64028E
:10174400605A900244E0FFEFC313FF900244EFF0AD
:10175400900245E0FFEFC313FF900245EFF09002C3
:1017640046E0FFEFC313FF900246EFF07B017A02DD
:10177400794412283122E56BC39404401FE56BD3EE
:10178400940F5018AF6B7E03EF8EF0A4FFAEF0748D
:0D179400F62FF974253EFA7BFF1228312252
:100B4A00410000FF4100D4FF4100D5FF410005FFED
:100B5A0041000300410004004100DB004400D000D2
:100B6A0000000042000100004200CE000060C80000
:100B7A000600000000000000000000000000000065
:100B8A00000000000000000000000000000000005B
:100B9A00000000000000000000000000000000004B
:100BAA00000000000000000000000000000000003B
:100BBA00000000000000000000000000000000002B
:100BCA00000000000000000000000000000000001B
:100BDA00000000000000000000000000000000000B
:100BEA0000000000000000000000000000000000FB
:100BFA0000000000000000000000000000000000EB
:100C0A0000000000000000000000000000000000DA
:100C1A0000000000000000000000000000000000CA
:100C2A0000000000000000000000000000000000BA
:100C3A000000000000000000004100DC004200D675
:0F0C4A00FFFF4200D900004100DD054100D80D39
:101324009000D474FFF0122B4A122DE38B4F8A5095
:101334008951AB4FAA50A951758204758300120ECE
:10134400B6FFAEF09000DCE0FD04F0ED25E02406ED
:10135400F582E43400F583EEF0A3EFF09000DCE0D6
:10136400FFEFC3946440059000DCE4F09000D0E00B
:10137400FCA3E0FDA3E0FEA3E0FF7B017A0079007B
:101384007800EF2BFFEE3AFEED39FDEC38FC9000CF
:10139400D0120FE0900001E0FEA3E0FFEF4E7014C6
:1013A400AB4FAA50A951758204758300120EB6FF83
:1013B400AEF0804DAB4FAA50A951758204758300DD
:1013C400120EB6FFAEF0E4FCFDC004C005C006C0BA
:1013D40007900001E0FEA3E0FF7C007D1F12105582
:1013E400A804A905AA06AB07D007D006D005D004E7
:1013F400EB2FFFEA3EFEE93DFDE83CFC7805120FC9
:10140400CD900001EEF0A3EFF07F147E007D007C10
:10141400009000D0E0F8A3E0F9A3E0FAA3E0FBC356
:10142400120FBC50779000CEE0FEA3E0FFEF4E70A9
:1014340014AB4FAA50A951758204758300120EB6DD
:10144400FFAEF0804DAB4FAA50A95175820475834D
:1014540000120EB6FFAEF0E4FCFDC004C005C006E9
:10146400C0079000CEE0FEA3E0FF7C007D071210D1
:1014740055A804A905AA06AB07D007D006D005D005
:1014840004EB2FFFEA3EFEE93DFDE83CFC78031245
:101494000FCD9000CEEEF0A3EFF08060AB4FAA50DA
:1014A400A951758204758300120EB6FFAEF0900048
:1014B400CEE0FCA3E0FDD3ED9FEC9E40109000CF66
:1014C400E024FFF09000CEE034FFF0802FAB4FAA71
:1014D40050A951758204758300120EB6FFAEF090C8
:1014E40000CEE0FCA3E0FDC3ED9FEC9E500E900007
:1014F400CFE004F070069000CEE004F012108240B9
:10150400141224BC122F2E5008122D7A4003122DCF
:10151400F512250F22122F2E5008120280500312AA
:02152400250F91
:0115260022A2
:102CF900122F149000DDE0FFE4FCFDFE7BFF7A2635
:0B2D090079921218B4900000EFF02245
:10269200122F18122EA99000D4E0FFC3EF64809489
:1026A2008040089000D4E0FF1221527BFF7A137918
:1026B200247F017E007D007C001218B49000D4EFCC
:1026C200F09000D8E0FFE4FCFDFE7BFF7A2C79F964
:0926D2001218B4900000EFF02290
:10108200750900750A00750BFF750CFF750D00756B
:101092000E00750F007510007513007514007508A9
:1010A20000E508C394644003021170AF08EF25E025
:1010B2002406F582E43400F583E0FEA3E0FFEF4E60
:1010C200700302116B0514E51470020513AF08EFEB
:1010D20025E02406F582E43400F583E0FEA3E0FF78
:1010E200D3EF950AEE95094015AF08EF25E02406E7
:1010F200F582E43400F583E0F509A3E0F50AAF08D0
:10110200EF25E02406F582E43400F583E0FEA3E057
:10111200FFC3EF950CEE950B5015AF08EF25E024B9
:1011220006F582E43400F583E0F50BA3E0F50CAF9D
:1011320008EF25E02406F582E43400F583E0FEA3FF
:10114200E0FFD3EF9470EE940D501CAF08EF25E052
:101152002406F582E43400F583E0FEA3E0FFC3EF4A
:101162009428EE94045002050D05080210A3C3E56D
:101172000A950CF512E509950BF511122E3840036C
:1011820002131A900000E0FFC3EF648094805003C2
:1011920002131A7F647E007D007C009000D0E0F88C
:1011A200A3E0F9A3E0FAA3E0FBD3120FBC40577F00
:1011B200C87E007D007C009000D0E0F8A3E0F9A397
:1011C200E0FAA3E0FBD3120FBC403B9000CEE0FE5E
:1011D200A3E0FF900001E0FCA3E0FDC3ED9FF50F4B
:1011E200EC9EF50EC3E50E64809480500BC3E4952B
:1011F2000FF50FE4950EF50ED3E50F94E8E50E9486
:10120200034003431001122CBF400302131A7FC88C
:101212007E007D007C009000D0E0F8A3E0F9A3E01E
:10122200FAA3E0FBD3120FBC5019122D7A50047F9F
:101232002880027F1E8F15E50DD39515402A431095
:10124200028025900001E0FEA3E0FFD3EF9470EE50
:10125200940D5011900001E0FEA3E0FFC3EF94282B
:10126200EE940450034310107F647E007D007C00E6
:101272009000D0E0F8A3E0F9A3E0FAA3E0FBD312D8
:101282000FBC500302131A9000D6E0FEA3E0FFC386
:10129200E5129FE5119E5006AE11AF128008900034
:1012A200D6E0FEA3E0FF9000D6EEF0A3EFF09000B0
:1012B200D9E0FEA3E0FFD3E5129FE5119E4006AE02
:1012C20011AF1280089000D9E0FEA3E0FF9000D990
:1012D200EEF0A3EFF0122D7A401EC3E5129490E5D2
:1012E2001194015003431004D3E51294DCE51194E8
:1012F20005402543100880209000D6E0FEA3E0FFC1
:101302009000D6EEF0A3EFF09000D9E0FEA3E0FF4C
:101312009000D9EEF0A3EFF0122F315003431040AA
:01132200D3F7
:0113230022A7
:102C7F00900004E0FF7E007C037DE81210557BFF7F
:102C8F007A2C799F1218B49000D5EFF01227EF220B
:102C9F009000DBE0FF7E007C037DE81210557BFF88
:102CAF007A2C797F1218B49000D5EFF01228EC220D
:1025620090000574FFF0900003E014F0900003E087
:10257200FFEFD3940040177BFF7A2579627F607E5C
:10258200EA7D007C001218B4900005EFF022900062
:10259200D5E0FFC3EF64809480400E9000D5E0FF49
:1025A2001221529000D574FFF01228EC1224BC22A2
:1027EF00900000E0FFC3EF648094805019122F28EF
:1027FF007BFF7A2C79F97F007E007D007C00121818
:10280F00B4900000EFF09000D4E0FFC3EF64809429
:10281F0080400E9000D4E0FF1221529000D474FF3C
:02282F00F02295
:1028EC00900000E0FFC3EF648094804014122F2B03
:1028FC00122F18900000E0FF12215290000074FF7C
:10290C00F09000D4E0FFC3EF64809480400E900000
:0D291C00D4E0FF1221529000D474FFF0228D
:0D001E001201C2122E97122B1E12250F2266
:10250F009000D0120FEC00000000900001E4F0A347
:10251F00E4F09000CEE4F0A3E4F09000DCE4F0905F
:10252F0000D674FFF0A374FFF09000D9E4F0A3E499
:10253F00F0756C00E56CC394645017AF6CEF25E039
:10254F002406F582E43400F583E4F0A3E4F0056C8F
:02255F0080E218
:012561002257
:101E5D008B528A5389549000D5E0FFC3EF64809470
:101E6D0080400E9000D5E0FF1221529000D574FFF6
:101E7D00F0900005E0FFC3EF64809480400E900069
:101E8D0005E0FF12215290000574FFF01228ECAB13
:101E9D0052AA53A954758202758300120EB6FFAE75
:101EAD00F0900003EFF0AB52AA53A954120DD1FFDD
:101EBD00900004EFF0AB52AA53A9547582017583BB
:101ECD0000120DEAFF9000DBEFF0900004E0FFEF51
:101EDD00D3940040479000DBE0FFEFD3940040180F
:101EED007BFF7A2C797F7F007E007D007C001218AD
:101EFD00B49000D5EFF080031227EF900003E0FFC0
:101F0D00EFD3940040167BFF7A2579627F607EEADD
:0D1F1D007D007C001218B4900005EFF0224A
:102E18008F5B8D5C9000DDE55BF09000D8E55CF0A1
:012E28002287
:100C5900608C01AE000000000000000000000000F0
:100C6900000000000000000000000000000000007B
:100C7900000000000000000000000000000000006B
:100C8900000000000000000000000000000000005B
:100C9900000000000000000000000000000000004B
:100CA900000000000000000000000000000000003B
:100CB900000000000000000000000000000000002B
:100CC900000000000000000000000000000000001B
:100CD900000000000000000000000000000000000B
:0B0CE90041023A004401AA0000000094
:102BC8009001AAE0FCA3E0FDA3E0FEA3E0FF7B01E7
:102BD8007A0079007800EF2BFFEE3AFEED39FDEC34
:092BE80038FC9001AA120FE02252
:101D7D0090023AE0FFD3EF648094805003021E522C
:101D8D00754500C3E545648094944003021E5CAF25
:101D9D0045EF3395E0FE9001B275F007EF12101D7F
:101DAD00EE75F007A42583F583E0FBA3E0FAA3E02D
:101DBD00F9C003C002C0017B007A007900D082D047
:101DCD0083D0E06B7008E965827003EA6583606F0C
:101DDD00AF45EF3395E0FE9001AE75F007EF1210B1
:101DED001DEE75F007A42583F583E0FCA3E0FDA3AC
:101DFD00E0FEA3E0FF9001AAE0F8A3E0F9A3E0FA6A
:101E0D00A3E0FBC3120FBC4036AF45EF3395E0FEA8
:101E1D009001B275F007EF12101DEE75F007A425B5
:101E2D0083F583E0FBA3E0FAA3E0F98B468A4789AB
:101E3D0048AF45122152AB46AA47A94812104F058B
:0F1E4D0045021D90229001AA120FEC0000000028
:011E5C002263
:0E18B4008F198E188D178C168B1A8A1B891CA3
:1018C200751DFF7B007A007900C003C002C001AB26
:1018D2001AAA1BA91CD082D083D0E06B7008E965DC
:1018E200827003EA658370030219C090023AE0FF36
:1018F200C3EF6480949440030219C0751E00C3E5CF
:101902001E6480949440030219C0AF1EEF3395E029
:10191200FE9001B275F007EF12101DEE75F007A4EC
:101922002583F583E0FBA3E0FAA3E0F9C003C0023C
:10193200C0017B007A007900D082D083D0E06B7046
:1019420008E965827003EA6583706E9001AAE0FC83
:10195200A3E0FDA3E0FEA3E0FFEF2519FFEE35189B
:10196200FEED3517FDEC3516FCAB1EEB3395E0FAB8
:101972009001AE75F007EB12101DEA75F007A42571
:1019820083F583120FE0AB1AAA1BA91CAF1EEF331B
:1019920095E0FE9001B275F007EF12101DEE75F0A2
:1019A20007A42583F583EBF0A3EAF0A3E9F0900204
:1019B2003AE004F0851E1D8005051E021900AF1DC8
:0119C2002202
:102152008F6DC3E56D6480948050030221EBC3E56B
:102162006D64809494400122AF6DEF3395E0FE9050
:1021720001B275F007EF12101DEE75F007A425836A
:10218200F583E0FBA3E0FAA3E0F9C003C002C001BB
:102192007B007A007900D082D083D0E06B7008E9AE
:1021A20065827003EA658360407B007A007900AF44
:1021B2006DEF3395E0FE9001B275F007EF12101D3E
:1021C200EE75F007A42583F583EBF0A3EAF0A3E90B
:1021D200F090023AE014F090023AE0FFEF700A90B9
:0A21E20001AA120FEC000000002219
:020CF400C10637
:102AE900900252E4F0A3E4F090024EE4F0A3E4F083
:102AF90090025074FFF0A374FFF0900256120FEC8D
:102B090000000000900254E4F0A3E4F090025AE4BB
:052B1900F0A3E4F0222E
:072EDA00122D62122AE92209
:092EA900D206122F0B122AE922B5
:102B4A0090025AE0FEA3E0FFAB07AA06E4F9F89068
:102B5A000256E0FCA3E0FDA3E0FEA3E0FF120F2A69
:0B2B6A00900252EEF0A3EFF0C2062232
:1017A1002006030218B3122EA040030218B3122D13
:1017B100148E5D8F5E122F0B90025BE004F07006B9
:1017C10090025AE004F0900256E0F8A3E0F9A3E099
:1017D100FAA3E0FBAE5DAF5EE4FCFDEB2FFFEA3E5A
:1017E100FEE93DFDE83CFC900256120FE090024EEE
:1017F100E0FEA3E0FFD3E55E9FE55D9E400A900217
:101801004EE55DF0A3E55EF0900250E0FEA3E0FF3F
:10181100C3E55E9FE55D9E500A900250E55DF0A331
:10182100E55EF0900254E0FEA3E0FFEF4E700B90F6
:101831000254E55DF0A3E55EF022900254E0FEA3C0
:10184100E0FFC3E55E9FE55D9E402CAE5DAF5E7C33
:10185100007D03120E39900254E0FCA3E0FDEF2D50
:10186100FFEE3CFEEF7802CEC313CE13D8F9FF9002
:101871000254EEF0A3EFF0900254E0FEA3E0FFC3A8
:10188100E55E9FE55D9E502A900254E0FEA3E0FFD5
:101891007C007D03120E39EF255EFFEE355DFEEF14
:1018A1007802CEC313CE13D8F9FF900254EEF0A301
:0218B100EFF056
:0118B3002212
:102DE3003006087B007A00790080067B017A02793D
:022DF3004E226E
:100CF600607C010E00000000000000000000000003
:100D060000000000000000000000000000000000DD
:100D160000000000000000000000000000000000CD
:100D260000000000000000000000000000000000BD
:100D360000000000000000000000000000000000AD
:100D4600000000000000000000000000000000009D
:100D5600000000000000000000000000000000008D
:100D6600000000000000000000000000000000007D
:100D760042010C00005F00EC0000000000000000D3
:100D8600000000000000000000000000000000005D
:100D9600000000000000005F018B00000000000062
:100DA600000000000000000000000000000000003D
:100DB6000000000000000000004200EA00004101BF
:0A0DC6008A0041010BFFC100C101CA
:092EB20090010B74FFF0D2002224
:10245D0090010CE4F0A3E4F090018A74FEF090007A
:10246D00EA74FFF0A374FFF0C200756E00E56EC351
:10247D00941F5037AF6E74EC2FF582E43400F58362
:10248D00E4F0AF6EEF25E025E0240EF582E4340193
:10249D00F583120FEC00000000AF6E748B2FF582E8
:0E24AD00E43401F583E4F0056E80C2122B1EAC
:0124BB0022FE
:102B1E00756FFF7B007A00796F7D01122A13C3E572
:102B2E006F648094BC400CD3E56F648094DA5003DC
:0B2B3E00300103756F4BAF6F122D923A
:012B49002269
:062F0500D20112245D223E
:032F2E00A20122DB
:102DBC00122F108F701228717B007A0079707D01B0
:032DCC001221ECE5
:012DCF0022E1
:102DF50012245D90010BE0FF12215290010B74FF2C
:022E0500F022B9
:032F3100A20022D9
:10028000752500C207122F108F21C3E521648094C9
:10029000BC40F774C42521F52190018AE0FFEF608E
:1002A000030205449000EAE0FEA3E0FFEF64FF7064
:1002B00003EE64FF60399000EAE0FEA3E0FFD3EFB5
:1002C0009400EE94005003020ADA9000EBE024FF61
:1002D000F09000EAE034FFF09000EAE0FEA3E0FFD7
:1002E000EF4E6003020ADAC2011226DB020ADA903C
:1002F000010BE0FFC3EF6480948050167BFF7A2EE1
:1003000079B27F107E277D007C001218B490010B1B
:10031000EFF0AF21EF3395E0FE74EC2FF58274001F
:100320003EF583E0FFEF6003020ADA90010CE4750A
:10033000F001120EA0AFF0FEC3EF940FEE94005048
:1003400073122DE38B268A278928AF21EF3395E09E
:10035000FEEF7802C333CE33CED8F9FF740E2FF5FB
:100360008274013EF583C083C082E0FCA3E0FDA35C
:10037000E0FEA3E0FFC004C005C006C007AB26AA8C
:1003800027A928758204758300120EB6FFAEF0AB64
:1003900007AA06E4F9F8D007D006D005D004EF2B61
:1003A000FFEE3AFEED39FDEC38FCD082D083120F1F
:1003B000E0020ADAAF21EF3395E0FE74EC2FF5820C
:1003C00074003EF5837401F0852122AF21EF33954F
:1003D000E0FEEF7802C333CE33CED8F9FF740E2F90
:1003E000F58274013EF583E0FCA3E0FDA3E0FEA3EB
:1003F000E0FF7BF77A8F79007800C3120FBC5017AB
:10040000D3E52164809480402C1521E521243CFF14
:10041000122D92D207801EAF21EF3395E0FEEF241C
:100420003CFFEE3400FEC3EF945AEE64809480509B
:10043000040521D207200703020538AF21EF3395C9
:10044000E0FE74EC2FF58274003EF583E0FFEF646C
:10045000016003020502D3E5226480F8E52164808F
:10046000984004AF228002AF218F23AF23EF339552
:10047000E0FE748B2FF58274013EF583E004F0AF4B
:1004800023EF3395E0FE748B2FF58274013EF583E4
:10049000E0FFEFC3940340219000EAE4F0A374640A
:1004A000F0E523243CFF122D9290010BE0FF122176
:1004B0005290010B74FFF08008E521243CFF122DBF
:1004C00092AF21EF3395E0FEEF7802C333CE33CE07
:1004D000D8F9FF740E2FF58274013EF583120FECEC
:1004E0000000000090010CE4F0A3E4F0AF21EF3332
:1004F00095E0FE74EC2FF58274003EF583E4F00283
:100500000ADA90010CE4F0A3E4F0AF21EF3395E0B8
:10051000FEEF7802C333CE33CED8F9FF740E2FF539
:100520008274013EF583120FEC00000000E52124E7
:100530003CFF122D92020ADA9000EAE4F0A3746400
:10054000F0020ADA90010BE0FFC3EF648094805060
:10055000167BFF7A2E79B27F107E277D007C0012F9
:1005600018B490010BEFF0AF21EF3395E0FE74EC7F
:100570002FF58274003EF583E0FFEF60030209B9B6
:1005800090010CE475F001120EA0AFF0FEC3EF94E1
:1005900005EE94005073122DE38B268A278928AF2D
:1005A00021EF3395E0FEEF7802C333CE33CED8F996
:1005B000FF740E2FF58274013EF583C083C082E084
:1005C000FCA3E0FDA3E0FEA3E0FFC004C005C0065D
:1005D000C007AB26AA27A928758204758300120ECE
:1005E000B6FFAEF0AB07AA06E4F9F8D007D006D004
:1005F00005D004EF2BFFEE3AFEED39FDEC38FCD0D0
:1006000082D083120FE00209B9AF21EF3395E0FEEB
:1006100074EC2FF58274003EF5837401F090018A2A
:10062000E0FFEF64FE600D90018AE0FFEF6402607E
:10063000030209B9752400C3E5246480949F400334
:1006400002081CAF24EF3395E0FE74EC2FF58274A2
:10065000003EF583E0FFEF6401600302081790009D
:10066000E2E0FCA3E0FDA3E0FEA3E0FF9000DE12C9
:100670000FE09000E6E0FCA3E0FDA3E0FEA3E0FFB6
:100680009000E2120FE0AF24EF3395E0FEEF780226
:10069000C333CE33CED8F9FF740E2FF58274013EEA
:1006A000F583E0FCA3E0FDA3E0FEA3E0FF9000E6FD
:1006B000120FE00525E525C39403500302081790A7
:1006C000018AE0FFEF64FE60030207A59000E2E00C
:1006D000FCA3E0FDA3E0FEA3E0FF9000E6E0F8A3AA
:1006E000E0F9A3E0FAA3E0FBD3120FBC504790005F
:1006F000DEE0FCA3E0FDA3E0FEA3E0FF9000E2E06B
:10070000F8A3E0F9A3E0FAA3E0FBD3120FBC502555
:100710007FFB7E4F7D007C009000DEE0F8A3E0F9D7
:10072000A3E0FAA3E0FBC3120FBC500990018A7446
:1007300002F002081C9000E2E0FCA3E0FDA3E0FE52
:10074000A3E0FF9000E6E0F8A3E0F9A3E0FAA3E05D
:10075000FBC3120FBC50030208179000DEE0FCA39D
:10076000E0FDA3E0FEA3E0FF9000E2E0F8A3E0F9E3
:10077000A3E0FAA3E0FBC3120FBC50030208177FEB
:10078000FD7E2F7D007C009000E6E0F8A3E0F9A359
:10079000E0FAA3E0FBD3120FBC507C90018A7402F4
:1007A000F08079807290018AE0FFEF6402706890B7
:1007B00000E2E0FCA3E0FDA3E0FEA3E0FF9000E682
:1007C000E0F8A3E0F9A3E0FAA3E0FBC3120FBC40FA
:1007D000469000DEE0FCA3E0FDA3E0FEA3E0FF9076
:1007E00000E2E0F8A3E0F9A3E0FAA3E0FBC3120FF4
:1007F000BC40247FFD7E2F7D007C009000E6E0F869
:10080000A3E0F9A3E0FAA3E0FBD3120FBC400890E9
:10081000018A74FFF08005052402063790018AE002
:10082000FFEF64FE600D90018AE0FFEF6402600359
:100830000209B985212475250090018AE0FFEF3374
:1008400095E0FEAD24ED3395E0FCED2FFFEC3EFE90
:10085000C3EE6480948050030209B190018AE0FFE6
:10086000EF3395E0FEAD24ED3395E0FCED2FFFEC8A
:100870003EFEC3EF941FEE6480948040030209B1F2
:1008800090018AE0FFEF2524F524AF24EF3395E0B3
:10089000FE74EC2FF58274003EF583E0FFEF703EAE
:1008A000E524243CFF122D9290010CE4F0A3E4F027
:1008B000AF24EF3395E0FEEF7802C333CE33CED8CA
:1008C000F9FF740E2FF58274013EF583120FEC00D0
:1008D000000000852421D2070209B10208399000E6
:1008E000E2E0FCA3E0FDA3E0FEA3E0FF9000DE1247
:1008F0000FE09000E6E0FCA3E0FDA3E0FEA3E0FF34
:100900009000E2120FE0AF24EF3395E0FEEF7802A3
:10091000C333CE33CED8F9FF740E2FF58274013E67
:10092000F583E0FCA3E0FDA3E0FEA3E0FF9000E67A
:10093000120FE00525E525C3940350030208399002
:1009400000E2E0FCA3E0FDA3E0FEA3E0FF9000E6F0
:10095000E0F8A3E0F9A3E0FAA3E0FBC3120FBC5058
:10096000030208399000DEE0FCA3E0FDA3E0FEA353
:10097000E0FF9000E2E0F8A3E0F9A3E0FAA3E0FBD7
:10098000C3120FBC50030208397FFD7E2F7D007C0F
:10099000009000E6E0F8A3E0F9A3E0FAA3E0FBD3BF
:1009A000120FBC500302083990018A74FFF002084C
:1009B0003920070512245DD20790018AE0FFEF6419
:1009C000FF6003020ADAAF21EF3395E0FE74EC2FEB
:1009D000F58274003EF583E0FFEF64016003020AD4
:1009E000DAAF21EF3395E0FEEF7802C333CE33CE9A
:1009F000D8F9FF740E2FF58274013EF583E0FCA355
:100A0000E0FDA3E0FEA3E0FF7BFD7A2F79007800F4
:100A1000D3120FBC405F90018AE4F09000EA74FFAB
:100A2000F0A374FFF0752400C3E5246480949F5004
:100A30003AAF24EF3395E0FE74EC2FF58274003E5C
:100A4000F583E4F0AF24EF3395E0FEEF7802C33393
:100A5000CE33CED8F9FF740E2FF58274013EF583A4
:100A6000120FEC00000000052480BD90010CE4F0A2
:100A7000A3E4F08065D3E521648094804057900121
:100A80008AE0FFEF2521F521E521243CFF122D927C
:100A9000AF21EF3395E0FE74EC2FF58274003EF544
:100AA00083E0FFEF702B90010CE4F0A3E4F0AF21A2
:100AB000EF3395E0FEEF7802C333CE33CED8F9FFA3
:100AC000740E2FF58274013EF583120FEC000000C6
:0C0AD00000D207800512245DD207A207A7
:010ADC0022F7
:102CBF0090018AE0FFEF70149000EAE0FEA3E0FFBE
:0E2CCF00EF64FF7003EE64FF6002D322C322A5
:0C2E380090018AE0FFEF7002D322C32259
:102D7A0090018AE0FFEF700E9000EAE0FEA3E0FF08
:082D8A00EF4E7002D322C322B8
:1020D200022C3DE493A3F8E493A34003F68001F2BB
:1020E20008DFF48029E493A3F85407240CC8C3330F
:1020F200C4540F4420C8834004F456800146F6DFDE
:10210200E4800B0102040810204080900ADDE47E86
:10211200019360BCA3FF543F30E509541FFEE493D2
:10212200A360010ECF54C025E060A840B8E493A399
:10213200FAE493A3F8E493A3C8C582C8CAC583CAC4
:10214200F0A3C8C582C8CAC583CADFE9DEE780BE7C
:010DD0000022
:100DD100BB010689828A83E0225002E722BBFE0220
:090DE100E32289828A83E4932253
:100DEA00BB010CE58229F582E5833AF583E02250BE
:100DFA0006E92582F8E622BBFE06E92582F8E22208
:0D0E0A00E58229F582E5833AF583E4932221
:100E1700F8BB010DE58229F582E5833AF583E8F011
:100E2700225006E92582C8F622BBFE05E92582C8BD
:020E3700F222A5
:100E3900EF8DF0A4A8F0CF8CF0A428CE8DF0A42ECD
:020E4900FE2287
:100E4B00BC000BBE0029EF8DF084FFADF022E4CC8B
:100E5B00F875F008EF2FFFEE33FEEC33FCEE9DEC54
:100E6B00984005FCEE9DFE0FD5F0E9E4CEFD22ED9A
:100E7B00F8F5F0EE8420D21CFEADF075F008EF2FE4
:100E8B00FFED33FD4007985006D5F0F222C398FDD5
:050E9B000FD5F0EA2272
:100EA000A3F8E0C5F025F0F0E58215827002158305
:060EB000E0C838F0E82262
:100EB600BB0110E58229F582E5833AF583E0F5F07A
:100EC600A3E0225009E92582F886F008E622BBFE57
:100ED6000AE92582F8E2F5F008E222E5832AF5839D
:080EE600E993F5F0A3E9932262
:100EEE0075F008758200EF2FFFEE33FECD33CDCCBB
:100EFE0033CCC58233C5829BED9AEC99E58298403E
:100F0E000CF582EE9BFEED9AFDEC99FC0FD5F0D61A
:100F1E00E4CEFBE4CDFAE4CCF9A88222B800C1B944
:100F2E000059BA002DEC8BF084CFCECDFCE5F0CB82
:100F3E00F97818EF2FFFEE33FEED33FDEC33FCEBBB
:100F4E0033FB10D703994004EB99FB0FD8E5E4F976
:100F5E00FA227818EF2FFFEE33FEED33FDEC33FC63
:100F6E00C933C910D7059BE99A4007EC9BFCE99A57
:100F7E00F90FD8E0E4C9FAE4CCFB2275F010EF2F9C
:100F8E00FFEE33FEED33FDCC33CCC833C810D7079C
:100F9E009BEC9AE899400AED9BFDEC9AFCE899F8D7
:0E0FAE000FD5F0DAE4CDFBE4CCFAE4C8F9226A
:100FBC00EB9FF5F0EA9E42F0E99D42F0E89C45F08B
:010FCC002202
:100FCD00E8600FECC313FCED13FDEE13FEEF13FF02
:030FDD00D8F12226
:0C0FE000ECF0A3EDF0A3EEF0A3EFF02284
:100FEC00A8828583F0D083D08212100312100312D2
:100FFC001003121003E473E493A3C583C5F0C583F7
:10100C00C8C582C8F0A3C583C5F0C583C8C582C84E
:01101C0022B1
:0C101D00A42582F582E5F03583F58322DE
:10102900D083D082F8E4937012740193700DA3A356
:1010390093F8740193F5828883E47374029368606A
:06104900EFA3A3A380DF6A
:06104F008A838982E4732C
:10105500EC8EF0A4CCC5F0CCCDF8EFA4CEC5F02D28
:10106500FDE43CFCE8A42EC8C5F03DFDE43CFCEFE6
:0D107500A4FFE5F028FEE43DFDE43CFC2274
:00000001FF
